:020000040800F2
:1000000000000220B9020008C1020008C502000871
:10001000DD020008E1020008F9020008000000000B
:1000200000000000000000000000000011030008B4
:100030001503000800000000190300081D03000854
:100040002D0300082D0300082D0300082D030008D0
:100050002D0300082D0300082D0300082D030008C0
:100060002D0300082D0300082D0300082D030008B0
:100070002D0300082D0300082D0300082D030008A0
:100080002D0300082D0300082D0300082D03000890
:100090002D0300082D0300082D0300082D03000880
:1000A0002D0300082D0300082D0300082D03000870
:1000B0002D0300082D0300082D0300082D03000860
:1000C0002D0300082D0300082D0300082D03000850
:1000D0002D0300082D0300082D0300082D03000840
:1000E0002D0300082D0300082D0300082D03000830
:1000F0002D0300082D0300082D0300082D03000820
:100100002D0300082D0300082D0300082D0300080F
:100110002D0300082D0300082D0300082D030008FF
:100120002D0300082D0300082D0300082D030008EF
:100130002D0300082D0300082D0300082D030008DF
:100140002D0300082D0300082D0300082D030008CF
:100150002D0300082D0300082D0300082D030008BF
:100160002D0300082D0300082D0300082D030008AF
:100170002D0300082D0300082D03000800000000D7
:100180002D0300082D03000800B583B000F0EEF841
:10019000384B394A1360394A136039490CE00A6810
:1001A0004B6801F10C04886803E01168196004339E
:1001B00004329842F9D82146324B9942EFD32E4B64
:1001C0001A68314B9A4204D12C4B1A682F4B9A4231
:1001D00000D0FEE7274B2E4A13602E4A13602E4BA9
:1001E0000AE0194651F8082B5B6802E00020106015
:1001F00004329A42FAD30B46284A9342F1D3244B55
:100200001B6813B9234B1B6803B1FEE700F0BAF873
:1002100001A8694600F0A2F8214C224B1C1BA41037
:10022000002504E01E4B53F8253098470135AC42B9
:10023000F8DC1D4C1D4B1C1BA410002504E01A4BC0
:1002400053F8253098470135AC42F8DC0198009905
:1002500000F072F90546164C164B1C1BA41004E066
:10026000013C134B53F824309847002CF8DC284607
:1002700000F072F8BABADECA0000002020000020A8
:100280003003000848030008785634123254769838
:10029000240000202C000020480300085803000818
:1002A00058030008580300085803000858030008C2
:1002B000580300085803000808B5FFF765FF00BFA2
:1002C00000BEFEE71EF0040F0CBFEFF30880EFF353
:1002D00009807146124A104700BEFEE700BEFEE7E5
:1002E0001EF0040F0CBFEFF30880EFF30980714696
:1002F0000C4A104700BEFEE71EF0040F0CBFEFF3E0
:100300000880EFF309807146074A104700BEFEE7F8
:1003100000BEFEE700BEFEE700BEFEE7704700003D
:10032000D9020008F50200080D03000800BEFEE730
:100330003C05000800000020240000203C050008C7
:1003400000000010000000102400002030000020F9
:08035000000000100000001085
:10035800FEE700BF01230360014B0B60704700BF3D
:100368000400002008B500F06FF8024B024A9A60BA
:1003780008BD00BF00ED00E00000000808B500F06F
:1003880085F808BD82B00023019300932A4A1368B8
:1003980043F480331360284B1B6803F40033009345
:1003A800019B01330193009B1BB9019BB3F5A04F3F
:1003B800F1D1214B1B6813F4003F02D001230093B5
:1003C80001E000230093009B012B32D11A4B1A6CD9
:1003D80042F080521A6419490A6842F440420A609D
:1003E8009A689A609A6842F400429A609A6842F45D
:1003F800A0529A60124A5A601A6842F080721A60D3
:100408000D4B1B6813F0007FFAD040F205720D4BBC
:100418001A60A3F580639A6822F003029A609A68CA
:1004280042F002029A60044B9B6803F00C03082B0D
:10043800F9D102B0704700BF003802400070004098
:1004480008544007003C024008B50D4B1A6842F0BA
:1004580001021A60002199601A6822F0847222F45D
:1004680080321A60074A5A601A6822F480221A6099
:10047800D960FFF787FF4FF00062034B9A6008BD11
:10048800003802401030002400ED00E0234B9B6848
:1004980003F00C03042B07D0082B09D0002B2DD117
:1004A8001F4A204B1A602CE01F4A1E4B1A6028E096
:1004B8001A4B5A685B6803F03F0312F4800F09D0A7
:1004C800194AB2FBF3F2154B5B68C3F3881303FBBD
:1004D80002F208E0124AB2FBF3F3104A5168C1F382
:1004E800881101FB03F20D4B5B68C3F30143013331
:1004F8005B00B2FBF3F30B4A136002E0084A094BB6
:100508001A60064B9B68C3F30313084AD25CD2B245
:1005180004490B68D3400B60704700BF00380240A5
:100528000024F4001C00002000127A000C000020B7
:04053800FEE700BF1B
:10053C007856341228000020000000000000000053
:10054C00000000000102030406070809007A030AF0
:04055C003254769807
:040000050800018965
:00000001FF
